{"abi":[{"type":"constructor","inputs":[{"name":"trustedSigner","type":"address","internalType":"address"},{"name":"serviceFee","type":"uint256","internalType":"uint256"}],"stateMutability":"nonpayable"},{"type":"fallback","stateMutability":"payable"},{"type":"receive","stateMutability":"payable"},{"type":"function","name":"bridgeIn","inputs":[{"name":"sourceChain","type":"uint32","internalType":"uint32"},{"name":"wrappedToken","type":"address","internalType":"address"},{"name":"amount","type":"uint256","internalType":"uint256"},{"name":"receiver","type":"address","internalType":"address"}],"outputs":[],"stateMutability":"payable"},{"type":"function","name":"bridgeOut","inputs":[{"name":"targetChain","type":"uint32","internalType":"uint32"},{"name":"token","type":"address","internalType":"address"},{"name":"amount","type":"uint256","internalType":"uint256"}],"outputs":[],"stateMutability":"payable"},{"type":"function","name":"interfaceTokens","inputs":[],"outputs":[{"name":"","type":"tuple[]","internalType":"struct Structs.WrappedToken[]","components":[{"name":"name","type":"string","internalType":"string"},{"name":"symbol","type":"string","internalType":"string"},{"name":"decimals","type":"uint8","internalType":"uint8"},{"name":"wrappedToken","type":"address","internalType":"address"},{"name":"token","type":"address","internalType":"address"},{"name":"sourceChain","type":"uint32","internalType":"uint32"}]}],"stateMutability":"view"},{"type":"function","name":"mintToBridgeOut","inputs":[{"name":"args","type":"tuple","internalType":"struct Structs.MintInput","components":[{"name":"sourceChain","type":"uint32","internalType":"uint32"},{"name":"token","type":"address","internalType":"address"},{"name":"amount","type":"uint256","internalType":"uint256"},{"name":"receiver","type":"address","internalType":"address"},{"name":"wrappedTokenName","type":"string","internalType":"string"},{"name":"wrappedTokenSymbol","type":"string","internalType":"string"},{"name":"txHash","type":"bytes","internalType":"bytes"},{"name":"txSigned","type":"bytes","internalType":"bytes"},{"name":"timestamp","type":"uint256","internalType":"uint256"}]}],"outputs":[],"stateMutability":"nonpayable"},{"type":"function","name":"owner","inputs":[],"outputs":[{"name":"","type":"address","internalType":"address"}],"stateMutability":"view"},{"type":"function","name":"pauseEmergency","inputs":[],"outputs":[],"stateMutability":"nonpayable"},{"type":"function","name":"paused","inputs":[],"outputs":[{"name":"","type":"bool","internalType":"bool"}],"stateMutability":"view"},{"type":"function","name":"renounceOwnership","inputs":[],"outputs":[],"stateMutability":"nonpayable"},{"type":"function","name":"transferOwnership","inputs":[{"name":"newOwner","type":"address","internalType":"address"}],"outputs":[],"stateMutability":"nonpayable"},{"type":"function","name":"unlockToBridgeIn","inputs":[{"name":"args","type":"tuple","internalType":"struct Structs.ReleaseInput","components":[{"name":"sourceChain","type":"uint32","internalType":"uint32"},{"name":"token","type":"address","internalType":"address"},{"name":"amount","type":"uint256","internalType":"uint256"},{"name":"receiver","type":"address","internalType":"address"},{"name":"txHash","type":"bytes","internalType":"bytes"},{"name":"txSigned","type":"bytes","internalType":"bytes"},{"name":"timestamp","type":"uint256","internalType":"uint256"}]}],"outputs":[],"stateMutability":"nonpayable"},{"type":"function","name":"unpauseEmergency","inputs":[],"outputs":[],"stateMutability":"nonpayable"},{"type":"function","name":"updateServiceFee","inputs":[{"name":"newFee","type":"uint256","internalType":"uint256"}],"outputs":[],"stateMutability":"nonpayable"},{"type":"function","name":"withdrawFees","inputs":[],"outputs":[],"stateMutability":"nonpayable"},{"type":"event","name":"Burn","inputs":[{"name":"wrappedToken","type":"address","indexed":false,"internalType":"address"},{"name":"amount","type":"uint256","indexed":false,"internalType":"uint256"},{"name":"receiver","type":"address","indexed":false,"internalType":"address"},{"name":"sourceChain","type":"uint32","indexed":false,"internalType":"uint32"},{"name":"serviceFee","type":"uint256","indexed":false,"internalType":"uint256"}],"anonymous":false},{"type":"event","name":"Lock","inputs":[{"name":"targetChain","type":"uint32","indexed":false,"internalType":"uint32"},{"name":"token","type":"address","indexed":false,"internalType":"address"},{"name":"receiver","type":"address","indexed":false,"internalType":"address"},{"name":"amount","type":"uint256","indexed":false,"internalType":"uint256"},{"name":"serviceFee","type":"uint256","indexed":false,"internalType":"uint256"}],"anonymous":false},{"type":"event","name":"Mint","inputs":[{"name":"sourceChain","type":"uint256","indexed":false,"internalType":"uint256"},{"name":"wrappedToken","type":"address","indexed":false,"internalType":"address"},{"name":"amount","type":"uint256","indexed":false,"internalType":"uint256"},{"name":"receiver","type":"address","indexed":false,"internalType":"address"},{"name":"timestamp","type":"uint256","indexed":false,"internalType":"uint256"}],"anonymous":false},{"type":"event","name":"OwnershipTransferred","inputs":[{"name":"previousOwner","type":"address","indexed":true,"internalType":"address"},{"name":"newOwner","type":"address","indexed":true,"internalType":"address"}],"anonymous":false},{"type":"event","name":"Paused","inputs":[{"name":"account","type":"address","indexed":false,"internalType":"address"}],"anonymous":false},{"type":"event","name":"Release","inputs":[{"name":"sourceChain","type":"uint256","indexed":false,"internalType":"uint256"},{"name":"token","type":"address","indexed":false,"internalType":"address"},{"name":"amount","type":"uint256","indexed":false,"internalType":"uint256"},{"name":"receiver","type":"address","indexed":false,"internalType":"address"},{"name":"timestamp","type":"uint256","indexed":false,"internalType":"uint256"}],"anonymous":false},{"type":"event","name":"Unpaused","inputs":[{"name":"account","type":"address","indexed":false,"internalType":"address"}],"anonymous":false},{"type":"event","name":"WrappedTokenDeployed","inputs":[{"name":"sourceChain","type":"uint32","indexed":false,"internalType":"uint32"},{"name":"token","type":"address","indexed":false,"internalType":"address"},{"name":"wrappedToken","type":"address","indexed":false,"internalType":"address"}],"anonymous":false}],"bytecode":{"object":"0x60806040523480156200001157600080fd5b506040516200468f3803806200468f8339810160408190526200003491620000c7565b6200003f3362000077565b600180556002805460ff19169055600880546001600160a01b0319166001600160a01b03939093169290921790915560095562000103565b600080546001600160a01b038381166001600160a01b0319831681178455604051919092169283917f8be0079c531659141344cd1fd0a4f28419497f9722a3daafe3b4186f6b6457e09190a35050565b60008060408385031215620000db57600080fd5b82516001600160a01b0381168114620000f357600080fd5b6020939093015192949293505050565b61457c80620001136000396000f3fe608060405260043610620000eb5760003560e01c8063715018a6116200008b5780638c742b0111620000615780638c742b0114620002745780638da5cb5b146200028c578063ae4b7c2614620002b6578063f2fde38b14620002db5762000129565b8063715018a614620002205780637bbe62cd14620002385780637f23dcc1146200025d5762000129565b80635c975abb11620000c15780635c975abb14620001cc578063690db38d14620001f15780636bd7d76614620002085762000129565b806340378694146200015d578063476343ee14620001845780635ba4f7cf146200019c5762000129565b36620001295760405162461bcd60e51b815260206004820152600860248201526714995d995c9d195960c21b60448201526064015b60405180910390fd5b60405162461bcd60e51b815260206004820152600860248201526714995d995c9d195960c21b604482015260640162000120565b3480156200016a57600080fd5b50620001826200017c36600462002018565b62000300565b005b3480156200019157600080fd5b5062000182620007bb565b348015620001a957600080fd5b50620001b462000844565b604051620001c39190620021b0565b60405180910390f35b348015620001d957600080fd5b5060025460ff166040519015158152602001620001c3565b62000182620002023660046200227f565b62000a22565b3480156200021557600080fd5b506200018262000cf3565b3480156200022d57600080fd5b506200018262000d09565b3480156200024557600080fd5b506200018262000257366004620022d7565b62000d1f565b620001826200026e366004620023c3565b620013ef565b3480156200028157600080fd5b5062000182620015b6565b3480156200029957600080fd5b506000546040516001600160a01b039091168152602001620001c3565b348015620002c357600080fd5b5062000182620002d536600462002407565b620015ca565b348015620002e857600080fd5b5062000182620002fa36600462002421565b620015d9565b6200030a6200166c565b62000314620016c8565b60c081015160e08201516040516336e7a99f60e01b815260009073__$03536fd10dbb8a170600640c424d9e3a97$__906336e7a99f906200035c908690869060040162002448565b60206040518083038186803b1580156200037557600080fd5b505af41580156200038a573d6000803e3d6000fd5b505050506040513d601f19601f82011682018060405250810190620003b091906200247a565b6008549091506001600160a01b03808316911614620003ff5760405162461bcd60e51b815260206004820152600a6024820152692130b21039b4b3b732b960b11b604482015260640162000120565b836000015184602001518560400151866060015187608001518860a001518961010001518a60c00151604051602001620004419897969594939291906200249a565b60408051601f198184030181529190528051602090910120600a5560608401516001600160a01b03163314620004ba5760405162461bcd60e51b815260206004820152601c60248201527f526563656976657220616e642073656e646572206d69736d6174636800000000604482015260640162000120565b6000846040015111620004fd5760405162461bcd60e51b815260206004820152600a60248201526910985908185b5bdd5b9d60b21b604482015260640162000120565b61010084015160009081526006602052604090205460ff1615620005805760405162461bcd60e51b815260206004820152603360248201527f4572726f72202850726f6f66206f66204d657373616765293a204475706c6963604482015272185d19481bdc88185b1c9958591e481d5cd959606a1b606482015260840162000120565b60078460c001516040516200059691906200254c565b9081526040519081900360200190205460ff1615620006145760405162461bcd60e51b815260206004820152603360248201527f4572726f72202850726f6f66206f66204d657373616765293a204475706c6963604482015272185d19481bdc88185b1c9958591e481d5cd959606a1b606482015260840162000120565b6020808501516001600160a01b039081166000908152600490925260409091205416806200065d576200065a8560000151866020015187608001518860a001516200171d565b90505b60408581015190517f40c10f1900000000000000000000000000000000000000000000000000000000815233600482015260248101919091526001600160a01b038216906340c10f1990604401600060405180830381600087803b158015620006c557600080fd5b505af1158015620006da573d6000803e3d6000fd5b50505061010086015160009081526006602052604090819020805460ff1916600190811790915560c0880151915190925060079162000719916200254c565b9081526040805160209281900383018120805460ff1916941515949094179093558751888301516001600160a01b03908116600090815260048552839020548a84015163ffffffff909316865216928401929092528201523360608201524260808201527f84eec0cc021c0ff22a89399092b675bed8191791265041460592f2e063638c889060a00160405180910390a150505050620007b860018055565b50565b620007c562001c7d565b60004711620008175760405162461bcd60e51b815260206004820152601660248201527f4e6f2062616c616e636520746f20776974686472617700000000000000000000604482015260640162000120565b60405133904780156108fc02916000818181858888f19350505050158015620007b8573d6000803e3d6000fd5b60606005805480602002602001604051908101604052809291908181526020016000905b8282101562000a1957838290600052602060002090600402016040518060c00160405290816000820180546200089e906200256a565b80601f0160208091040260200160405190810160405280929190818152602001828054620008cc906200256a565b80156200091d5780601f10620008f1576101008083540402835291602001916200091d565b820191906000526020600020905b815481529060010190602001808311620008ff57829003601f168201915b5050505050815260200160018201805462000938906200256a565b80601f016020809104026020016040519081016040528092919081815260200182805462000966906200256a565b8015620009b75780601f106200098b57610100808354040283529160200191620009b7565b820191906000526020600020905b8154815290600101906020018083116200099957829003601f168201915b5050509183525050600282015460ff81166020808401919091526001600160a01b0361010090920482166040840152600390930154908116606083015263ffffffff600160a01b90910416608090910152908252600192909201910162000868565b50505050905090565b62000a2c6200166c565b62000a36620016c8565b60095434101562000a8a5760405162461bcd60e51b815260206004820152601660248201527f5365727669636520666565206e6f7420656e6f75676800000000000000000000604482015260640162000120565b6001600160a01b038116331462000ae45760405162461bcd60e51b815260206004820152601c60248201527f526563656976657220616e642073656e646572206d69736d6174636800000000604482015260640162000120565b828262000b215760405162461bcd60e51b815260206004820152600a60248201526910985908185b5bdd5b9d60b21b604482015260640162000120565b6001600160a01b03848116600090815260036020819052604090912001541662000b8e5760405162461bcd60e51b815260206004820152601360248201527f4e6f7420737570706f7274656420746f6b656e00000000000000000000000000604482015260640162000120565b6001600160a01b0384166000908152600360208190526040909120015463ffffffff868116600160a01b909204161462000c0b5760405162461bcd60e51b815260206004820152601060248201527f42616420736f7572636520636861696e00000000000000000000000000000000604482015260640162000120565b6040517f79cc67900000000000000000000000000000000000000000000000000000000081526001600160a01b038381166004830152602482018590528216906379cc679090604401600060405180830381600087803b15801562000c6f57600080fd5b505af115801562000c84573d6000803e3d6000fd5b5050604080516001600160a01b038816815260208101879052338183015263ffffffff8916606082015234608082015290517e989ea0be393cc50d948c041f33b2681491568c0f027ab821dc7727db348a2293509081900360a0019150a15062000ced60018055565b50505050565b62000cfd62001c7d565b62000d0762001cd9565b565b62000d1362001c7d565b62000d07600062001d2d565b62000d296200166c565b62000d33620016c8565b608081015160a08201516040516336e7a99f60e01b815260009073__$03536fd10dbb8a170600640c424d9e3a97$__906336e7a99f9062000d7b908690869060040162002448565b60206040518083038186803b15801562000d9457600080fd5b505af415801562000da9573d6000803e3d6000fd5b505050506040513d601f19601f8201168201806040525081019062000dcf91906200247a565b6008549091506001600160a01b0380831691161462000e1e5760405162461bcd60e51b815260206004820152600a6024820152692130b21039b4b3b732b960b11b604482015260640162000120565b836000015184602001518560400151866060015160405180602001604052806000815250604051806020016040528060008152508960c001518a6080015173__$03536fd10dbb8a170600640c424d9e3a97$__6330195ee7826040518263ffffffff1660e01b815260040162000e959190620025a7565b60206040518083038186803b15801562000eae57600080fd5b505af415801562000ec3573d6000803e3d6000fd5b505050506040513d601f19601f8201168201806040525081019062000ee99190620025bc565b6040517ff733459100000000000000000000000000000000000000000000000000000000815273__$03536fd10dbb8a170600640c424d9e3a97$__9063f73345919062000f47908c908c908c908c908c908c908c90600401620025d6565b60206040518083038186803b15801562000f6057600080fd5b505af415801562000f75573d6000803e3d6000fd5b505050506040513d601f19601f8201168201806040525081019062000f9b9190620025bc565b1462000fea5760405162461bcd60e51b815260206004820152600860248201527f4261642061726773000000000000000000000000000000000000000000000000604482015260640162000120565b60608c01516001600160a01b03163314620010485760405162461bcd60e51b815260206004820152601c60248201527f526563656976657220616e642073656e646572206d69736d6174636800000000604482015260640162000120565b60208c01516040517f162790550000000000000000000000000000000000000000000000000000000081526001600160a01b03909116600482015273__$03536fd10dbb8a170600640c424d9e3a97$__9063162790559060240160206040518083038186803b158015620010bb57600080fd5b505af4158015620010d0573d6000803e3d6000fd5b505050506040513d601f19601f82011682018060405250810190620010f691906200263f565b620011445760405162461bcd60e51b815260206004820152601460248201527f546f6b656e20646f6573206e6f74206578697374000000000000000000000000604482015260640162000120565b60c08c015160009081526006602052604090205460ff1615620011c65760405162461bcd60e51b815260206004820152603360248201527f4572726f72202850726f6f66206f66204d657373616765293a204475706c6963604482015272185d19481bdc88185b1c9958591e481d5cd959606a1b606482015260840162000120565b60078c60800151604051620011dc91906200254c565b9081526040519081900360200190205460ff16156200125a5760405162461bcd60e51b815260206004820152603360248201527f4572726f72202850726f6f66206f66204d657373616765293a204475706c6963604482015272185d19481bdc88185b1c9958591e481d5cd959606a1b606482015260840162000120565b60208c01516040808e015190517fa9059cbb00000000000000000000000000000000000000000000000000000000815233600482015260248101919091526001600160a01b039091169063a9059cbb90604401602060405180830381600087803b158015620012c857600080fd5b505af1158015620012dd573d6000803e3d6000fd5b505050506040513d601f19601f820116820180604052508101906200130391906200263f565b5060c08c015160009081526006602052604090819020805460ff1916600190811790915560808e0151915190916007916200133f91906200254c565b908152604080519182900360209081018320805494151560ff19909516949094179093558e51928f0151908f01517f85b9ef5c6fd3ae7f119f285ad0ff0d9c646b742fdf1888573ef16eb9e13985b493620013d293909291903390429063ffffffff9590951685526001600160a01b03938416602086015260408501929092529091166060830152608082015260a00190565b60405180910390a15050505050505050505050620007b860018055565b620013f96200166c565b62001403620016c8565b600954341015620014575760405162461bcd60e51b815260206004820152601660248201527f5365727669636520666565206e6f7420656e6f75676800000000000000000000604482015260640162000120565b60008111620014a95760405162461bcd60e51b815260206004820152600660248201527f4c6f636b20300000000000000000000000000000000000000000000000000000604482015260640162000120565b6040517f23b872dd000000000000000000000000000000000000000000000000000000008152336004820152306024820152604481018290526001600160a01b038316906323b872dd90606401602060405180830381600087803b1580156200151157600080fd5b505af115801562001526573d6000803e3d6000fd5b505050506040513d601f19601f820116820180604052508101906200154c91906200263f565b506040805163ffffffff851681526001600160a01b038416602082015233818301526060810183905234608082015290517f2b7585e527c5219f8309d5a9c9b232aec361471b8ec15feeeaab848fc9b31c039181900360a00190a1620015b160018055565b505050565b620015c062001c7d565b62000d0762001d95565b620015d462001c7d565b600955565b620015e362001c7d565b6001600160a01b038116620016615760405162461bcd60e51b815260206004820152602660248201527f4f776e61626c653a206e6577206f776e657220697320746865207a65726f206160448201527f6464726573730000000000000000000000000000000000000000000000000000606482015260840162000120565b620007b88162001d2d565b60026001541415620016c15760405162461bcd60e51b815260206004820152601f60248201527f5265656e7472616e637947756172643a207265656e7472616e742063616c6c00604482015260640162000120565b6002600155565b60025460ff161562000d075760405162461bcd60e51b815260206004820152601060248201527f5061757361626c653a2070617573656400000000000000000000000000000000604482015260640162000120565b6001600160a01b0383811660009081526004602052604081205490911615620017895760405162461bcd60e51b815260206004820152600f60248201527f416c726561647920777261707065640000000000000000000000000000000000604482015260640162000120565b8251620017d95760405162461bcd60e51b815260206004820152600860248201527f426164206e616d65000000000000000000000000000000000000000000000000604482015260640162000120565b8151620018295760405162461bcd60e51b815260206004820152600a60248201527f4261642073796d626f6c00000000000000000000000000000000000000000000604482015260640162000120565b60008563ffffffff1611620018815760405162461bcd60e51b815260206004820152600c60248201527f42616420636861696e2069640000000000000000000000000000000000000000604482015260640162000120565b60008383604051620018939062001e29565b620018a092919062002448565b604051809103906000f080158015620018bd573d6000803e3d6000fd5b506040517f2f2ff15d0000000000000000000000000000000000000000000000000000000081527f1effbbff9c66c5e59634f24fe842750c60d18891155c32dd155fc2d661a4c86d60048201523060248201529091506001600160a01b03821690632f2ff15d90604401600060405180830381600087803b1580156200194257600080fd5b505af115801562001957573d6000803e3d6000fd5b505050508060046000876001600160a01b03166001600160a01b0316815260200190815260200160002060006101000a8154816001600160a01b0302191690836001600160a01b0316021790555060006040518060c00160405280868152602001858152602001836001600160a01b031663313ce5676040518163ffffffff1660e01b815260040160206040518083038186803b158015620019f857600080fd5b505afa15801562001a0d573d6000803e3d6000fd5b505050506040513d601f19601f8201168201806040525081019062001a33919062002663565b60ff1681526001600160a01b03808516602080840191909152908916604083015263ffffffff8a166060909201919091526005805460018101825560009190915282518051939450849360049092027f036b6384b5eca791c62761152d0c79bb0604c104a5fb6f4eb0703f3154bb3db0019262001ab69284929091019062001e37565b50602082810151805162001ad1926001850192019062001e37565b50604082810151600283018054606086015160ff90931674ffffffffffffffffffffffffffffffffffffffffff19909116176101006001600160a01b039384160217905560808401516003938401805460a09096015191831677ffffffffffffffffffffffffffffffffffffffffffffffff1990961695909517600160a01b63ffffffff9092169190910217909355918416600090815260209182529190912082518051849362001b8792849291019062001e37565b50602082810151805162001ba2926001850192019062001e37565b5060408281015160028301805460608087015160ff90941674ffffffffffffffffffffffffffffffffffffffffff19909216919091176101006001600160a01b03948516021790915560808501516003909401805460a09096015194831677ffffffffffffffffffffffffffffffffffffffffffffffff1990961695909517600160a01b63ffffffff95861602179094558151928b16835289811660208401528516908201527f37ec9b9b41eba1d74ac57f9307e0515c99ba96c6dab00a5af06cee56407ae042910160405180910390a15095945050505050565b6000546001600160a01b0316331462000d075760405162461bcd60e51b815260206004820181905260248201527f4f776e61626c653a2063616c6c6572206973206e6f7420746865206f776e6572604482015260640162000120565b62001ce362001dd5565b6002805460ff191690557f5db9ee0a495bf2e6ff9c91a7834c1ba4fdd244a5e8aa4e537bd38aeae4b073aa335b6040516001600160a01b03909116815260200160405180910390a1565b600080546001600160a01b038381167fffffffffffffffffffffffff0000000000000000000000000000000000000000831681178455604051919092169283917f8be0079c531659141344cd1fd0a4f28419497f9722a3daafe3b4186f6b6457e09190a35050565b62001d9f620016c8565b6002805460ff191660011790557f62e78cea01bee320cd4e420270b5ea74000d11b0c9f74754ebdbfc544b05a25862001d103390565b60025460ff1662000d075760405162461bcd60e51b815260206004820152601460248201527f5061757361626c653a206e6f7420706175736564000000000000000000000000604482015260640162000120565b611ebe806200268983390190565b82805462001e45906200256a565b90600052602060002090601f01602090048101928262001e69576000855562001eb4565b82601f1062001e8457805160ff191683800117855562001eb4565b8280016001018555821562001eb4579182015b8281111562001eb457825182559160200191906001019062001e97565b5062001ec292915062001ec6565b5090565b5b8082111562001ec2576000815560010162001ec7565b634e487b7160e01b600052604160045260246000fd5b604051610120810167ffffffffffffffff8111828210171562001f1a5762001f1a62001edd565b60405290565b60405160e0810167ffffffffffffffff8111828210171562001f1a5762001f1a62001edd565b803563ffffffff8116811462001f5b57600080fd5b919050565b6001600160a01b0381168114620007b857600080fd5b803562001f5b8162001f60565b600082601f83011262001f9557600080fd5b813567ffffffffffffffff8082111562001fb35762001fb362001edd565b604051601f8301601f19908116603f0116810190828211818310171562001fde5762001fde62001edd565b8160405283815286602085880101111562001ff857600080fd5b836020870160208301376000602085830101528094505050505092915050565b6000602082840312156200202b57600080fd5b813567ffffffffffffffff808211156200204457600080fd5b9083019061012082860312156200205a57600080fd5b6200206462001ef3565b6200206f8362001f46565b81526200207f6020840162001f76565b6020820152604083013560408201526200209c6060840162001f76565b6060820152608083013582811115620020b457600080fd5b620020c28782860162001f83565b60808301525060a083013582811115620020db57600080fd5b620020e98782860162001f83565b60a08301525060c0830135828111156200210257600080fd5b620021108782860162001f83565b60c08301525060e0830135828111156200212957600080fd5b620021378782860162001f83565b60e0830152506101009283013592810192909252509392505050565b60005b838110156200217057818101518382015260200162002156565b8381111562000ced5750506000910152565b600081518084526200219c81602086016020860162002153565b601f01601f19169290920160200192915050565b60006020808301818452808551808352604092508286019150828160051b87010184880160005b838110156200227157603f19898403018552815160c08151818652620022008287018262002182565b915050888201518582038a8701526200221a828262002182565b838a015160ff16878b01526060808501516001600160a01b03908116918901919091526080808601519091169088015260a09384015163ffffffff16939096019290925250509386019390860190600101620021d7565b509098975050505050505050565b600080600080608085870312156200229657600080fd5b620022a18562001f46565b93506020850135620022b38162001f60565b9250604085013591506060850135620022cc8162001f60565b939692955090935050565b600060208284031215620022ea57600080fd5b813567ffffffffffffffff808211156200230357600080fd5b9083019060e082860312156200231857600080fd5b6200232262001f20565b6200232d8362001f46565b81526200233d6020840162001f76565b6020820152604083013560408201526200235a6060840162001f76565b60608201526080830135828111156200237257600080fd5b620023808782860162001f83565b60808301525060a0830135828111156200239957600080fd5b620023a78782860162001f83565b60a08301525060c083013560c082015280935050505092915050565b600080600060608486031215620023d957600080fd5b620023e48462001f46565b92506020840135620023f68162001f60565b929592945050506040919091013590565b6000602082840312156200241a57600080fd5b5035919050565b6000602082840312156200243457600080fd5b8135620024418162001f60565b9392505050565b6040815260006200245d604083018562002182565b828103602084015262002471818562002182565b95945050505050565b6000602082840312156200248d57600080fd5b8151620024418162001f60565b7fffffffff000000000000000000000000000000000000000000000000000000008960e01b16815260006bffffffffffffffffffffffff19808a60601b166004840152886018840152808860601b1660388401525085516200250481604c850160208a0162002153565b8551908301906200251d81604c840160208a0162002153565b01604c810185905283516200253a81606c84016020880162002153565b01606c019a9950505050505050505050565b600082516200256081846020870162002153565b9190910192915050565b600181811c908216806200257f57607f821691505b60208210811415620025a157634e487b7160e01b600052602260045260246000fd5b50919050565b60208152600062002441602083018462002182565b600060208284031215620025cf57600080fd5b5051919050565b63ffffffff8816815260006001600160a01b03808916602084015287604084015280871660608401525060e060808301526200261660e083018662002182565b82810360a08401526200262a818662002182565b9150508260c083015298975050505050505050565b6000602082840312156200265257600080fd5b815180151581146200244157600080fd5b6000602082840312156200267657600080fd5b815160ff811681146200244157600080fdfe60806040523480156200001157600080fd5b5060405162001ebe38038062001ebe8339810160408190526200003491620003b5565b8151829082906200004d90600590602085019062000242565b5080516200006390600690602084019062000242565b50506007805460ff19169055506200007d600033620000dd565b620000a97f9f2df0fed2c77648de5860a4cc508cd0818c85b8b8a1ab4ceeef8d981c8956a633620000dd565b620000d57f65d7a28e3265b37a6474929f336521b332c1681b933f6cb9f3376673440d862a33620000dd565b50506200045c565b620000e98282620000ed565b5050565b6200010482826200013060201b620009ad1760201c565b60008281526001602090815260409091206200012b91839062000a4b620001d0821b17901c565b505050565b6000828152602081815260408083206001600160a01b038516845290915290205460ff16620000e9576000828152602081815260408083206001600160a01b03851684529091529020805460ff191660011790556200018c3390565b6001600160a01b0316816001600160a01b0316837f2f8788117e7eff1d82e926ec794901d17c78024a50270940304540a733656f0d60405160405180910390a45050565b6000620001e7836001600160a01b038416620001f0565b90505b92915050565b60008181526001830160205260408120546200023957508154600181810184556000848152602080822090930184905584548482528286019093526040902091909155620001ea565b506000620001ea565b82805462000250906200041f565b90600052602060002090601f016020900481019282620002745760008555620002bf565b82601f106200028f57805160ff1916838001178555620002bf565b82800160010185558215620002bf579182015b82811115620002bf578251825591602001919060010190620002a2565b50620002cd929150620002d1565b5090565b5b80821115620002cd5760008155600101620002d2565b634e487b7160e01b600052604160045260246000fd5b600082601f8301126200031057600080fd5b81516001600160401b03808211156200032d576200032d620002e8565b604051601f8301601f19908116603f01168101908282118183101715620003585762000358620002e8565b816040528381526020925086838588010111156200037557600080fd5b600091505b838210156200039957858201830151818301840152908201906200037a565b83821115620003ab5760008385830101525b9695505050505050565b60008060408385031215620003c957600080fd5b82516001600160401b0380821115620003e157600080fd5b620003ef86838701620002fe565b935060208501519150808211156200040657600080fd5b506200041585828601620002fe565b9150509250929050565b600181811c908216806200043457607f821691505b602082108114156200045657634e487b7160e01b600052602260045260246000fd5b50919050565b611a52806200046c6000396000f3fe608060405234801561001057600080fd5b50600436106101c45760003560e01c806370a08231116100f9578063a457c2d711610097578063d539139311610071578063d5391393146103d3578063d547741f146103fa578063dd62ed3e1461040d578063e63ab1e91461044657600080fd5b8063a457c2d71461039a578063a9059cbb146103ad578063ca15c873146103c057600080fd5b80639010d07c116100d35780639010d07c1461032857806391d148541461035357806395d89b411461038a578063a217fddf1461039257600080fd5b806370a08231146102e457806379cc67901461030d5780638456cb591461032057600080fd5b8063313ce567116101665780633f4ba83a116101405780633f4ba83a146102ab57806340c10f19146102b357806342966c68146102c65780635c975abb146102d957600080fd5b8063313ce5671461027657806336568abe14610285578063395093511461029857600080fd5b806318160ddd116101a257806318160ddd1461021957806323b872dd1461022b578063248a9ca31461023e5780632f2ff15d1461026157600080fd5b806301ffc9a7146101c957806306fdde03146101f1578063095ea7b314610206575b600080fd5b6101dc6101d73660046116ec565b61046d565b60405190151581526020015b60405180910390f35b6101f96104b1565b6040516101e89190611742565b6101dc610214366004611791565b610543565b6004545b6040519081526020016101e8565b6101dc6102393660046117bb565b61055b565b61021d61024c3660046117f7565b60009081526020819052604090206001015490565b61027461026f366004611810565b61057f565b005b604051601281526020016101e8565b610274610293366004611810565b6105a9565b6101dc6102a6366004611791565b61063a565b610274610679565b6102746102c1366004611791565b61071f565b6102746102d43660046117f7565b6107c5565b60075460ff166101dc565b61021d6102f236600461183c565b6001600160a01b031660009081526002602052604090205490565b61027461031b366004611791565b6107d2565b6102746107e7565b61033b610336366004611857565b61088b565b6040516001600160a01b0390911681526020016101e8565b6101dc610361366004611810565b6000918252602082815260408084206001600160a01b0393909316845291905290205460ff1690565b6101f96108aa565b61021d600081565b6101dc6103a8366004611791565b6108b9565b6101dc6103bb366004611791565b610963565b61021d6103ce3660046117f7565b610971565b61021d7f9f2df0fed2c77648de5860a4cc508cd0818c85b8b8a1ab4ceeef8d981c8956a681565b610274610408366004611810565b610988565b61021d61041b366004611879565b6001600160a01b03918216600090815260036020908152604080832093909416825291909152205490565b61021d7f65d7a28e3265b37a6474929f336521b332c1681b933f6cb9f3376673440d862a81565b60006001600160e01b031982167f5a05180f0000000000000000000000000000000000000000000000000000000014806104ab57506104ab82610a60565b92915050565b6060600580546104c0906118a3565b80601f01602080910402602001604051908101604052809291908181526020018280546104ec906118a3565b80156105395780601f1061050e57610100808354040283529160200191610539565b820191906000526020600020905b81548152906001019060200180831161051c57829003601f168201915b5050505050905090565b600033610551818585610ac7565b5060019392505050565b600033610569858285610c04565b610574858585610c96565b506001949350505050565b60008281526020819052604090206001015461059a81610e95565b6105a48383610e9f565b505050565b6001600160a01b038116331461062c5760405162461bcd60e51b815260206004820152602f60248201527f416363657373436f6e74726f6c3a2063616e206f6e6c792072656e6f756e636560448201527f20726f6c657320666f722073656c66000000000000000000000000000000000060648201526084015b60405180910390fd5b6106368282610ec1565b5050565b3360008181526003602090815260408083206001600160a01b038716845290915281205490919061055190829086906106749087906118f4565b610ac7565b6106a37f65d7a28e3265b37a6474929f336521b332c1681b933f6cb9f3376673440d862a33610361565b6107155760405162461bcd60e51b815260206004820152603960248201527f45524332305072657365744d696e7465725061757365723a206d75737420686160448201527f76652070617573657220726f6c6520746f20756e7061757365000000000000006064820152608401610623565b61071d610ee3565b565b6107497f9f2df0fed2c77648de5860a4cc508cd0818c85b8b8a1ab4ceeef8d981c8956a633610361565b6107bb5760405162461bcd60e51b815260206004820152603660248201527f45524332305072657365744d696e7465725061757365723a206d75737420686160448201527f7665206d696e74657220726f6c6520746f206d696e74000000000000000000006064820152608401610623565b6106368282610f35565b6107cf3382611002565b50565b6107dd823383610c04565b6106368282611002565b6108117f65d7a28e3265b37a6474929f336521b332c1681b933f6cb9f3376673440d862a33610361565b6108835760405162461bcd60e51b815260206004820152603760248201527f45524332305072657365744d696e7465725061757365723a206d75737420686160448201527f76652070617573657220726f6c6520746f2070617573650000000000000000006064820152608401610623565b61071d611142565b60008281526001602052604081206108a3908361117f565b9392505050565b6060600680546104c0906118a3565b3360008181526003602090815260408083206001600160a01b0387168452909152812054909190838110156109565760405162461bcd60e51b815260206004820152602560248201527f45524332303a2064656372656173656420616c6c6f77616e63652062656c6f7760448201527f207a65726f0000000000000000000000000000000000000000000000000000006064820152608401610623565b6105748286868403610ac7565b600033610551818585610c96565b60008181526001602052604081206104ab9061118b565b6000828152602081905260409020600101546109a381610e95565b6105a48383610ec1565b6000828152602081815260408083206001600160a01b038516845290915290205460ff16610636576000828152602081815260408083206001600160a01b03851684529091529020805460ff19166001179055610a073390565b6001600160a01b0316816001600160a01b0316837f2f8788117e7eff1d82e926ec794901d17c78024a50270940304540a733656f0d60405160405180910390a45050565b60006108a3836001600160a01b038416611195565b60006001600160e01b031982167f7965db0b0000000000000000000000000000000000000000000000000000000014806104ab57507f01ffc9a7000000000000000000000000000000000000000000000000000000006001600160e01b03198316146104ab565b6001600160a01b038316610b425760405162461bcd60e51b8152602060048201526024808201527f45524332303a20617070726f76652066726f6d20746865207a65726f2061646460448201527f72657373000000000000000000000000000000000000000000000000000000006064820152608401610623565b6001600160a01b038216610ba35760405162461bcd60e51b815260206004820152602260248201527f45524332303a20617070726f766520746f20746865207a65726f206164647265604482015261737360f01b6064820152608401610623565b6001600160a01b0383811660008181526003602090815260408083209487168084529482529182902085905590518481527f8c5be1e5ebec7d5bd14f71427d1e84f3dd0314c0f7b2291e5b200ac8c7c3b925910160405180910390a3505050565b6001600160a01b038381166000908152600360209081526040808320938616835292905220546000198114610c905781811015610c835760405162461bcd60e51b815260206004820152601d60248201527f45524332303a20696e73756666696369656e7420616c6c6f77616e63650000006044820152606401610623565b610c908484848403610ac7565b50505050565b6001600160a01b038316610d125760405162461bcd60e51b815260206004820152602560248201527f45524332303a207472616e736665722066726f6d20746865207a65726f20616460448201527f64726573730000000000000000000000000000000000000000000000000000006064820152608401610623565b6001600160a01b038216610d8e5760405162461bcd60e51b815260206004820152602360248201527f45524332303a207472616e7366657220746f20746865207a65726f206164647260448201527f65737300000000000000000000000000000000000000000000000000000000006064820152608401610623565b610d998383836111e4565b6001600160a01b03831660009081526002602052604090205481811015610e285760405162461bcd60e51b815260206004820152602660248201527f45524332303a207472616e7366657220616d6f756e742065786365656473206260448201527f616c616e636500000000000000000000000000000000000000000000000000006064820152608401610623565b6001600160a01b0380851660008181526002602052604080822086860390559286168082529083902080548601905591517fddf252ad1be2c89b69c2b068fc378daa952ba7f163c4a11628f55a4df523b3ef90610e889086815260200190565b60405180910390a3610c90565b6107cf81336111ef565b610ea982826109ad565b60008281526001602052604090206105a49082610a4b565b610ecb8282611262565b60008281526001602052604090206105a490826112e1565b610eeb6112f6565b6007805460ff191690557f5db9ee0a495bf2e6ff9c91a7834c1ba4fdd244a5e8aa4e537bd38aeae4b073aa335b6040516001600160a01b03909116815260200160405180910390a1565b6001600160a01b038216610f8b5760405162461bcd60e51b815260206004820152601f60248201527f45524332303a206d696e7420746f20746865207a65726f2061646472657373006044820152606401610623565b610f97600083836111e4565b8060046000828254610fa991906118f4565b90915550506001600160a01b0382166000818152600260209081526040808320805486019055518481527fddf252ad1be2c89b69c2b068fc378daa952ba7f163c4a11628f55a4df523b3ef910160405180910390a35050565b6001600160a01b0382166110625760405162461bcd60e51b815260206004820152602160248201527f45524332303a206275726e2066726f6d20746865207a65726f206164647265736044820152607360f81b6064820152608401610623565b61106e826000836111e4565b6001600160a01b038216600090815260026020526040902054818110156110e25760405162461bcd60e51b815260206004820152602260248201527f45524332303a206275726e20616d6f756e7420657863656564732062616c616e604482015261636560f01b6064820152608401610623565b6001600160a01b03831660008181526002602090815260408083208686039055600480548790039055518581529192917fddf252ad1be2c89b69c2b068fc378daa952ba7f163c4a11628f55a4df523b3ef910160405180910390a3505050565b61114a611348565b6007805460ff191660011790557f62e78cea01bee320cd4e420270b5ea74000d11b0c9f74754ebdbfc544b05a258610f183390565b60006108a3838361139b565b60006104ab825490565b60008181526001830160205260408120546111dc575081546001818101845560008481526020808220909301849055845484825282860190935260409020919091556104ab565b5060006104ab565b6105a48383836113c5565b6000828152602081815260408083206001600160a01b038516845290915290205460ff16610636576112208161143e565b61122b836020611450565b60405160200161123c92919061190c565b60408051601f198184030181529082905262461bcd60e51b825261062391600401611742565b6000828152602081815260408083206001600160a01b038516845290915290205460ff1615610636576000828152602081815260408083206001600160a01b0385168085529252808320805460ff1916905551339285917ff6391f5c32d9c69d2a47ea670b442974b53935d1edc7fd64eb21e047a839171b9190a45050565b60006108a3836001600160a01b0384166115f9565b60075460ff1661071d5760405162461bcd60e51b815260206004820152601460248201527f5061757361626c653a206e6f74207061757365640000000000000000000000006044820152606401610623565b60075460ff161561071d5760405162461bcd60e51b815260206004820152601060248201527f5061757361626c653a20706175736564000000000000000000000000000000006044820152606401610623565b60008260000182815481106113b2576113b261198d565b9060005260206000200154905092915050565b60075460ff16156105a45760405162461bcd60e51b815260206004820152602a60248201527f45524332305061757361626c653a20746f6b656e207472616e7366657220776860448201527f696c6520706175736564000000000000000000000000000000000000000000006064820152608401610623565b60606104ab6001600160a01b03831660145b6060600061145f8360026119a3565b61146a9060026118f4565b67ffffffffffffffff811115611482576114826119c2565b6040519080825280601f01601f1916602001820160405280156114ac576020820181803683370190505b509050600360fc1b816000815181106114c7576114c761198d565b60200101906001600160f81b031916908160001a905350600f60fb1b816001815181106114f6576114f661198d565b60200101906001600160f81b031916908160001a905350600061151a8460026119a3565b6115259060016118f4565b90505b60018111156115aa577f303132333435363738396162636465660000000000000000000000000000000085600f16601081106115665761156661198d565b1a60f81b82828151811061157c5761157c61198d565b60200101906001600160f81b031916908160001a90535060049490941c936115a3816119d8565b9050611528565b5083156108a35760405162461bcd60e51b815260206004820181905260248201527f537472696e67733a20686578206c656e67746820696e73756666696369656e746044820152606401610623565b600081815260018301602052604081205480156116e257600061161d6001836119ef565b8554909150600090611631906001906119ef565b90508181146116965760008660000182815481106116515761165161198d565b90600052602060002001549050808760000184815481106116745761167461198d565b6000918252602080832090910192909255918252600188019052604090208390555b85548690806116a7576116a7611a06565b6001900381819060005260206000200160009055905585600101600086815260200190815260200160002060009055600193505050506104ab565b60009150506104ab565b6000602082840312156116fe57600080fd5b81356001600160e01b0319811681146108a357600080fd5b60005b83811015611731578181015183820152602001611719565b83811115610c905750506000910152565b6020815260008251806020840152611761816040850160208701611716565b601f01601f19169190910160400192915050565b80356001600160a01b038116811461178c57600080fd5b919050565b600080604083850312156117a457600080fd5b6117ad83611775565b946020939093013593505050565b6000806000606084860312156117d057600080fd5b6117d984611775565b92506117e760208501611775565b9150604084013590509250925092565b60006020828403121561180957600080fd5b5035919050565b6000806040838503121561182357600080fd5b8235915061183360208401611775565b90509250929050565b60006020828403121561184e57600080fd5b6108a382611775565b6000806040838503121561186a57600080fd5b50508035926020909101359150565b6000806040838503121561188c57600080fd5b61189583611775565b915061183360208401611775565b600181811c908216806118b757607f821691505b602082108114156118d857634e487b7160e01b600052602260045260246000fd5b50919050565b634e487b7160e01b600052601160045260246000fd5b60008219821115611907576119076118de565b500190565b7f416363657373436f6e74726f6c3a206163636f756e7420000000000000000000815260008351611944816017850160208801611716565b7f206973206d697373696e6720726f6c65200000000000000000000000000000006017918401918201528351611981816028840160208801611716565b01602801949350505050565b634e487b7160e01b600052603260045260246000fd5b60008160001904831182151516156119bd576119bd6118de565b500290565b634e487b7160e01b600052604160045260246000fd5b6000816119e7576119e76118de565b506000190190565b600082821015611a0157611a016118de565b500390565b634e487b7160e01b600052603160045260246000fdfea2646970667358221220805e1244a73fe8bdf2a8ff5a891d3b50e93fad347f252d6ee834776b6e620dbb64736f6c63430008080033a2646970667358221220f3c6799a626711e1a6c7b0e67662010ab75e191caba4fe20e1009cd45fc5928864736f6c63430008080033","linkReferences":{"src/Utils.sol":{"Utils":[{"start":1091,"length":20},{"start":3682,"length":20},{"start":3953,"length":20},{"start":4132,"length":20},{"start":4504,"length":20}]}}},"methodIdentifiers":{"bridgeIn(uint32,address,uint256,address)":"690db38d","bridgeOut(uint32,address,uint256)":"7f23dcc1","interfaceTokens()":"5ba4f7cf","mintToBridgeOut((uint32,address,uint256,address,string,string,bytes,bytes,uint256))":"40378694","owner()":"8da5cb5b","pauseEmergency()":"8c742b01","paused()":"5c975abb","renounceOwnership()":"715018a6","transferOwnership(address)":"f2fde38b","unlockToBridgeIn((uint32,address,uint256,address,bytes,bytes,uint256))":"7bbe62cd","unpauseEmergency()":"6bd7d766","updateServiceFee(uint256)":"ae4b7c26","withdrawFees()":"476343ee"},"id":0}