{"abi":[{"type":"function","name":"bytesToAddress","inputs":[{"name":"bys","type":"bytes","internalType":"bytes"}],"outputs":[{"name":"addr","type":"address","internalType":"address"}],"stateMutability":"pure"},{"type":"function","name":"bytesToTxHash","inputs":[{"name":"bys","type":"bytes","internalType":"bytes"}],"outputs":[{"name":"txHash","type":"bytes32","internalType":"bytes32"}],"stateMutability":"pure"},{"type":"function","name":"hashArgs","inputs":[{"name":"sourceChain","type":"uint32","internalType":"uint32"},{"name":"nativeToken","type":"address","internalType":"address"},{"name":"amount","type":"uint256","internalType":"uint256"},{"name":"receiver","type":"address","internalType":"address"},{"name":"wTokenName","type":"string","internalType":"string"},{"name":"wTokenSymbol","type":"string","internalType":"string"},{"name":"timestamp","type":"uint256","internalType":"uint256"}],"outputs":[{"name":"","type":"bytes32","internalType":"bytes32"}],"stateMutability":"pure"},{"type":"function","name":"isContract","inputs":[{"name":"addr","type":"address","internalType":"address"}],"outputs":[{"name":"","type":"bool","internalType":"bool"}],"stateMutability":"view"},{"type":"function","name":"recoverSigner","inputs":[{"name":"hashedMessage","type":"bytes","internalType":"bytes"},{"name":"v","type":"uint8","internalType":"uint8"},{"name":"r","type":"bytes32","internalType":"bytes32"},{"name":"s","type":"bytes32","internalType":"bytes32"}],"outputs":[{"name":"","type":"address","internalType":"address"}],"stateMutability":"pure"},{"type":"function","name":"recoverSignerFromSignedMessage","inputs":[{"name":"hashedMessage","type":"bytes","internalType":"bytes"},{"name":"signedMessage","type":"bytes","internalType":"bytes"}],"outputs":[{"name":"","type":"address","internalType":"address"}],"stateMutability":"pure"},{"type":"function","name":"splitSignature","inputs":[{"name":"sig","type":"bytes","internalType":"bytes"}],"outputs":[{"name":"","type":"uint8","internalType":"uint8"},{"name":"","type":"bytes32","internalType":"bytes32"},{"name":"","type":"bytes32","internalType":"bytes32"}],"stateMutability":"pure"}],"bytecode":{"object":"0x61075d61003a600b82828239805160001a60731461002d57634e487b7160e01b600052600060045260246000fd5b30600052607381538281f3fe73000000000000000000000000000000000000000030146080604052600436106100875760003560e01c806342526e4e1161006557806342526e4e146101105780637c4895fa14610125578063a7bb580314610138578063f73345911461016a57600080fd5b8063162790551461008c57806330195ee7146100b557806336e7a99f146100d8575b600080fd5b6100a061009a366004610383565b3b151590565b60405190151581526020015b60405180910390f35b6100ca6100c3366004610461565b6020015190565b6040519081526020016100ac565b6100eb6100e636600461049e565b61017d565b60405173ffffffffffffffffffffffffffffffffffffffff90911681526020016100ac565b6100eb61011e366004610461565b6014015190565b6100eb610133366004610502565b610215565b61014b610146366004610461565b6102a6565b6040805160ff90941684526020840192909252908201526060016100ac565b6100ca610178366004610567565b610318565b60008060008061018c856102a6565b9194509250905060006101a187858585610215565b905073ffffffffffffffffffffffffffffffffffffffff811661020b5760405162461bcd60e51b815260206004820152601860248201527f45434453413a20696e76616c6964207369676e6174757265000000000000000060448201526064015b60405180910390fd5b9695505050505050565b60008085604051602001610229919061064b565b60408051601f1981840301815282825280516020918201206000845290830180835281905260ff8816918301919091526060820186905260808201859052915060019060a0016020604051602081039080840390855afa158015610291573d6000803e3d6000fd5b5050604051601f190151979650505050505050565b600080600083516041146102fc5760405162461bcd60e51b815260206004820152601860248201527f496e76616c6964207369676e6174757265206c656e67746800000000000000006044820152606401610202565b5050506020810151604082015160609092015160001a92909190565b6000878787878787876040516020016103379796959493929190610690565b604051602081830303815290604052805190602001209050979650505050505050565b803573ffffffffffffffffffffffffffffffffffffffff8116811461037e57600080fd5b919050565b60006020828403121561039557600080fd5b61039e8261035a565b9392505050565b7f4e487b7100000000000000000000000000000000000000000000000000000000600052604160045260246000fd5b600082601f8301126103e557600080fd5b813567ffffffffffffffff80821115610400576104006103a5565b604051601f8301601f19908116603f01168101908282118183101715610428576104286103a5565b8160405283815286602085880101111561044157600080fd5b836020870160208301376000602085830101528094505050505092915050565b60006020828403121561047357600080fd5b813567ffffffffffffffff81111561048a57600080fd5b610496848285016103d4565b949350505050565b600080604083850312156104b157600080fd5b823567ffffffffffffffff808211156104c957600080fd5b6104d5868387016103d4565b935060208501359150808211156104eb57600080fd5b506104f8858286016103d4565b9150509250929050565b6000806000806080858703121561051857600080fd5b843567ffffffffffffffff81111561052f57600080fd5b61053b878288016103d4565b945050602085013560ff8116811461055257600080fd5b93969395505050506040820135916060013590565b600080600080600080600060e0888a03121561058257600080fd5b873563ffffffff8116811461059657600080fd5b96506105a46020890161035a565b9550604088013594506105b96060890161035a565b9350608088013567ffffffffffffffff808211156105d657600080fd5b6105e28b838c016103d4565b945060a08a01359150808211156105f857600080fd5b506106058a828b016103d4565b92505060c0880135905092959891949750929550565b60005b8381101561063657818101518382015260200161061e565b83811115610645576000848401525b50505050565b7f19457468657265756d205369676e6564204d6573736167653a0a33320000000081526000825161068381601c85016020870161061b565b91909101601c0192915050565b7fffffffff000000000000000000000000000000000000000000000000000000008860e01b16815260006bffffffffffffffffffffffff19808960601b166004840152876018840152808760601b1660388401525084516106f881604c85016020890161061b565b84519083019061070f81604c84016020890161061b565b01604c8101939093525050606c01969550505050505056fea26469706673582212205c91643199c7d3ce5a8d38d23521bd092d4c227e143fe37d85365cae4648c23f64736f6c63430008080033","linkReferences":{}},"methodIdentifiers":{"bytesToAddress(bytes)":"42526e4e","bytesToTxHash(bytes)":"30195ee7","hashArgs(uint32,address,uint256,address,string,string,uint256)":"f7334591","isContract(address)":"16279055","recoverSigner(bytes,uint8,bytes32,bytes32)":"7c4895fa","recoverSignerFromSignedMessage(bytes,bytes)":"36e7a99f","splitSignature(bytes)":"a7bb5803"},"id":0}